{
  "_format": "hh-sol-artifact-1",
  "contractName": "SimpleStorage",
  "sourceName": "contracts/SimpleStorage.sol",
  "abi": [
    {
      "inputs": [
        {
          "internalType": "string",
          "name": "",
          "type": "string"
        }
      ],
      "name": "nametoFavnum",
      "outputs": [
        {
          "internalType": "uint256",
          "name": "",
          "type": "uint256"
        }
      ],
      "stateMutability": "view",
      "type": "function"
    },
    {
      "inputs": [
        {
          "internalType": "uint256",
          "name": "",
          "type": "uint256"
        }
      ],
      "name": "person",
      "outputs": [
        {
          "internalType": "string",
          "name": "name",
          "type": "string"
        },
        {
          "internalType": "uint256",
          "name": "number",
          "type": "uint256"
        }
      ],
      "stateMutability": "view",
      "type": "function"
    },
    {
      "inputs": [
        {
          "internalType": "string",
          "name": "_name",
          "type": "string"
        },
        {
          "internalType": "uint256",
          "name": "_favnum",
          "type": "uint256"
        }
      ],
      "name": "storeperson",
      "outputs": [],
      "stateMutability": "nonpayable",
      "type": "function"
    },
    {
      "inputs": [],
      "name": "variable",
      "outputs": [
        {
          "internalType": "uint256",
          "name": "",
          "type": "uint256"
        }
      ],
      "stateMutability": "view",
      "type": "function"
    }
  ],
  "bytecode": "0x608060405234801561001057600080fd5b5061073d806100206000396000f3fe608060405234801561001057600080fd5b506004361061004c5760003560e01c8063092a182014610051578063b6854a2114610082578063b6f8031b146100a0578063d6085126146100d0575b600080fd5b61006b60048036038101906100669190610359565b6100ec565b60405161007992919061042e565b60405180910390f35b61008a6101a8565b604051610097919061045e565b60405180910390f35b6100ba60048036038101906100b591906105ae565b6101ae565b6040516100c7919061045e565b60405180910390f35b6100ea60048036038101906100e591906105f7565b6101dc565b005b600281815481106100fc57600080fd5b906000526020600020906002020160009150905080600001805461011f90610682565b80601f016020809104026020016040519081016040528092919081815260200182805461014b90610682565b80156101985780601f1061016d57610100808354040283529160200191610198565b820191906000526020600020905b81548152906001019060200180831161017b57829003601f168201915b5050505050908060010154905082565b60005481565b6001818051602081018201805184825260208301602085012081835280955050505050506000915090505481565b60026040518060400160405280848152602001838152509080600181540180825580915050600190039060005260206000209060020201600090919091909150600082015181600001908051906020019061023892919061026c565b506020820151816001015550508060018360405161025691906106f0565b9081526020016040518091039020819055505050565b82805461027890610682565b90600052602060002090601f01602090048101928261029a57600085556102e1565b82601f106102b357805160ff19168380011785556102e1565b828001600101855582156102e1579182015b828111156102e05782518255916020019190600101906102c5565b5b5090506102ee91906102f2565b5090565b5b8082111561030b5760008160009055506001016102f3565b5090565b6000604051905090565b600080fd5b600080fd5b6000819050919050565b61033681610323565b811461034157600080fd5b50565b6000813590506103538161032d565b92915050565b60006020828403121561036f5761036e610319565b5b600061037d84828501610344565b91505092915050565b600081519050919050565b600082825260208201905092915050565b60005b838110156103c05780820151818401526020810190506103a5565b838111156103cf576000848401525b50505050565b6000601f19601f8301169050919050565b60006103f182610386565b6103fb8185610391565b935061040b8185602086016103a2565b610414816103d5565b840191505092915050565b61042881610323565b82525050565b6000604082019050818103600083015261044881856103e6565b9050610457602083018461041f565b9392505050565b6000602082019050610473600083018461041f565b92915050565b600080fd5b600080fd5b7f4e487b7100000000000000000000000000000000000000000000000000000000600052604160045260246000fd5b6104bb826103d5565b810181811067ffffffffffffffff821117156104da576104d9610483565b5b80604052505050565b60006104ed61030f565b90506104f982826104b2565b919050565b600067ffffffffffffffff82111561051957610518610483565b5b610522826103d5565b9050602081019050919050565b82818337600083830152505050565b600061055161054c846104fe565b6104e3565b90508281526020810184848401111561056d5761056c61047e565b5b61057884828561052f565b509392505050565b600082601f83011261059557610594610479565b5b81356105a584826020860161053e565b91505092915050565b6000602082840312156105c4576105c3610319565b5b600082013567ffffffffffffffff8111156105e2576105e161031e565b5b6105ee84828501610580565b91505092915050565b6000806040838503121561060e5761060d610319565b5b600083013567ffffffffffffffff81111561062c5761062b61031e565b5b61063885828601610580565b925050602061064985828601610344565b9150509250929050565b7f4e487b7100000000000000000000000000000000000000000000000000000000600052602260045260246000fd5b6000600282049050600182168061069a57607f821691505b602082108114156106ae576106ad610653565b5b50919050565b600081905092915050565b60006106ca82610386565b6106d481856106b4565b93506106e48185602086016103a2565b80840191505092915050565b60006106fc82846106bf565b91508190509291505056fea264697066735822122017a9f53bafd7c5e138249c9be1f2568c8b487bdd6e289556d46287b8ff86f23464736f6c63430008080033",
  "linkReferences": {},
  "deployedLinkReferences": {}
}