{
  "_format": "hh-sol-artifact-1",
  "contractName": "BikeChain",
  "sourceName": "contracts/BikeChain.sol",
  "abi": [
    {
      "inputs": [],
      "name": "bikeOwner",
      "outputs": [
        {
          "internalType": "address",
          "name": "",
          "type": "address"
        }
      ],
      "stateMutability": "view",
      "type": "function"
    },
    {
      "inputs": [
        {
          "internalType": "uint256",
          "name": "time",
          "type": "uint256"
        }
      ],
      "name": "checkOut",
      "outputs": [
        {
          "internalType": "uint256",
          "name": "",
          "type": "uint256"
        }
      ],
      "stateMutability": "nonpayable",
      "type": "function"
    },
    {
      "inputs": [],
      "name": "connectWallet",
      "outputs": [],
      "stateMutability": "nonpayable",
      "type": "function"
    },
    {
      "inputs": [],
      "name": "credit",
      "outputs": [],
      "stateMutability": "payable",
      "type": "function"
    },
    {
      "inputs": [],
      "name": "creditAcc",
      "outputs": [
        {
          "internalType": "uint256",
          "name": "",
          "type": "uint256"
        }
      ],
      "stateMutability": "view",
      "type": "function"
    },
    {
      "inputs": [
        {
          "internalType": "uint256",
          "name": "dueAmount",
          "type": "uint256"
        }
      ],
      "name": "due",
      "outputs": [],
      "stateMutability": "payable",
      "type": "function"
    },
    {
      "inputs": [],
      "name": "firstName",
      "outputs": [
        {
          "internalType": "string",
          "name": "",
          "type": "string"
        }
      ],
      "stateMutability": "view",
      "type": "function"
    },
    {
      "inputs": [
        {
          "internalType": "string",
          "name": "fname",
          "type": "string"
        },
        {
          "internalType": "string",
          "name": "lname",
          "type": "string"
        }
      ],
      "name": "getName",
      "outputs": [],
      "stateMutability": "nonpayable",
      "type": "function"
    },
    {
      "inputs": [],
      "name": "lastName",
      "outputs": [
        {
          "internalType": "string",
          "name": "",
          "type": "string"
        }
      ],
      "stateMutability": "view",
      "type": "function"
    },
    {
      "inputs": [],
      "name": "owner",
      "outputs": [
        {
          "internalType": "address",
          "name": "",
          "type": "address"
        }
      ],
      "stateMutability": "view",
      "type": "function"
    },
    {
      "inputs": [],
      "name": "payDue",
      "outputs": [
        {
          "internalType": "uint256",
          "name": "",
          "type": "uint256"
        }
      ],
      "stateMutability": "view",
      "type": "function"
    }
  ],
  "bytecode": "0x608060405273f51d5fa269148b004c6cfb2afdfc1fe408a3a261600560006101000a81548173ffffffffffffffffffffffffffffffffffffffff021916908373ffffffffffffffffffffffffffffffffffffffff16021790555034801561006557600080fd5b50610b7d806100756000396000f3fe60806040526004361061009c5760003560e01c80638da5cb5b116100645780638da5cb5b146101675780639ab03dcb14610192578063a06d083c146101bd578063ae49cd9c146101c7578063ba82d493146101f0578063dbfaf1bb1461021b5761009c565b80631a386e02146100a15780631bd2eeee146100cc5780632d66f063146101095780634589fe0c146101205780636ff50b3f1461014b575b600080fd5b3480156100ad57600080fd5b506100b6610246565b6040516100c3919061062b565b60405180910390f35b3480156100d857600080fd5b506100f360048036038101906100ee9190610686565b61024c565b604051610100919061062b565b60405180910390f35b34801561011557600080fd5b5061011e61026f565b005b34801561012c57600080fd5b506101356102b2565b604051610142919061074c565b60405180910390f35b61016560048036038101906101609190610686565b610340565b005b34801561017357600080fd5b5061017c610454565b60405161018991906107af565b60405180910390f35b34801561019e57600080fd5b506101a761047a565b6040516101b4919061074c565b60405180910390f35b6101c5610508565b005b3480156101d357600080fd5b506101ee60048036038101906101e991906108ff565b610511565b005b3480156101fc57600080fd5b50610205610543565b60405161021291906107af565b60405180910390f35b34801561022757600080fd5b50610230610569565b60405161023d919061062b565b60405180910390f35b60025481565b60006404a817c8008261025f91906109a6565b6003819055506003549050919050565b33600460006101000a81548173ffffffffffffffffffffffffffffffffffffffff021916908373ffffffffffffffffffffffffffffffffffffffff160217905550565b600080546102bf90610a2f565b80601f01602080910402602001604051908101604052809291908181526020018280546102eb90610a2f565b80156103385780601f1061030d57610100808354040283529160200191610338565b820191906000526020600020905b81548152906001019060200180831161031b57829003601f168201915b505050505081565b600254811115801561035457506003548111155b1561045157806003546103679190610a61565b6003819055508060025461037b9190610a61565b6002819055506000600560009054906101000a900473ffffffffffffffffffffffffffffffffffffffff1673ffffffffffffffffffffffffffffffffffffffff16826040516103c990610ac6565b60006040518083038185875af1925050503d8060008114610406576040519150601f19603f3d011682016040523d82523d6000602084013e61040b565b606091505b505090508061044f576040517f08c379a000000000000000000000000000000000000000000000000000000000815260040161044690610b27565b60405180910390fd5b505b50565b600460009054906101000a900473ffffffffffffffffffffffffffffffffffffffff1681565b6001805461048790610a2f565b80601f01602080910402602001604051908101604052809291908181526020018280546104b390610a2f565b80156105005780601f106104d557610100808354040283529160200191610500565b820191906000526020600020905b8154815290600101906020018083116104e357829003601f168201915b505050505081565b34600281905550565b816000908051906020019061052792919061056f565b50806001908051906020019061053e92919061056f565b505050565b600560009054906101000a900473ffffffffffffffffffffffffffffffffffffffff1681565b60035481565b82805461057b90610a2f565b90600052602060002090601f01602090048101928261059d57600085556105e4565b82601f106105b657805160ff19168380011785556105e4565b828001600101855582156105e4579182015b828111156105e35782518255916020019190600101906105c8565b5b5090506105f191906105f5565b5090565b5b8082111561060e5760008160009055506001016105f6565b5090565b6000819050919050565b61062581610612565b82525050565b6000602082019050610640600083018461061c565b92915050565b6000604051905090565b600080fd5b600080fd5b61066381610612565b811461066e57600080fd5b50565b6000813590506106808161065a565b92915050565b60006020828403121561069c5761069b610650565b5b60006106aa84828501610671565b91505092915050565b600081519050919050565b600082825260208201905092915050565b60005b838110156106ed5780820151818401526020810190506106d2565b838111156106fc576000848401525b50505050565b6000601f19601f8301169050919050565b600061071e826106b3565b61072881856106be565b93506107388185602086016106cf565b61074181610702565b840191505092915050565b600060208201905081810360008301526107668184610713565b905092915050565b600073ffffffffffffffffffffffffffffffffffffffff82169050919050565b60006107998261076e565b9050919050565b6107a98161078e565b82525050565b60006020820190506107c460008301846107a0565b92915050565b600080fd5b600080fd5b7f4e487b7100000000000000000000000000000000000000000000000000000000600052604160045260246000fd5b61080c82610702565b810181811067ffffffffffffffff8211171561082b5761082a6107d4565b5b80604052505050565b600061083e610646565b905061084a8282610803565b919050565b600067ffffffffffffffff82111561086a576108696107d4565b5b61087382610702565b9050602081019050919050565b82818337600083830152505050565b60006108a261089d8461084f565b610834565b9050828152602081018484840111156108be576108bd6107cf565b5b6108c9848285610880565b509392505050565b600082601f8301126108e6576108e56107ca565b5b81356108f684826020860161088f565b91505092915050565b6000806040838503121561091657610915610650565b5b600083013567ffffffffffffffff81111561093457610933610655565b5b610940858286016108d1565b925050602083013567ffffffffffffffff81111561096157610960610655565b5b61096d858286016108d1565b9150509250929050565b7f4e487b7100000000000000000000000000000000000000000000000000000000600052601160045260246000fd5b60006109b182610612565b91506109bc83610612565b9250817fffffffffffffffffffffffffffffffffffffffffffffffffffffffffffffffff04831182151516156109f5576109f4610977565b5b828202905092915050565b7f4e487b7100000000000000000000000000000000000000000000000000000000600052602260045260246000fd5b60006002820490506001821680610a4757607f821691505b60208210811415610a5b57610a5a610a00565b5b50919050565b6000610a6c82610612565b9150610a7783610612565b925082821015610a8a57610a89610977565b5b828203905092915050565b600081905092915050565b50565b6000610ab0600083610a95565b9150610abb82610aa0565b600082019050919050565b6000610ad182610aa3565b9150819050919050565b7f74786e2061696e742073756365737366756c6c00000000000000000000000000600082015250565b6000610b116013836106be565b9150610b1c82610adb565b602082019050919050565b60006020820190508181036000830152610b4081610b04565b905091905056fea264697066735822122039d6a3e1982e30e4d56cf8b1ab1cf1b37e4bf7f58912fd7ed692051f4447adac64736f6c63430008080033",
  "linkReferences": {},
  "deployedLinkReferences": {}
}